:020000040800F2
:10000000FCFF0020C51900007918000079180000D5
:10001000791800007918000079180000791800009C
:10002000791800007918000079180000791800008C
:10003000791800007918000079180000791800007C
:10004000791800007918000079180000791800006C
:10005000791800007918000079180000791800005C
:10006000791800007918000079180000791800004C
:10007000791800007918000079180000791800003C
:10008000791800007918000079180000791800002C
:10009000791800007918000079180000791800001C
:1000A000791800007918000079180000791800000C
:1000B00079180000791800007918000079180000FC
:1000C00079180000791800007918000079180000EC
:1000D00079180000791800007918000079180000DC
:1000E00079180000791800007918000079180000CC
:1000F00079180000791800007918000079180000BC
:1001000079180000791800007918000079180000AB
:10011000791800007918000079180000791800009B
:10012000791800007918000079180000791800008B
:10013000791800007918000079180000791800007B
:10014000791800007918000079180000791800006B
:1001500081B000F214010A6800F21801096809046C
:1001600042EA0101084601B07047FFFF81B000F28A
:1001700018010A68C2F3400181F00101C9B2C8B296
:1001800001B0704781B0CDF800E04FF0000219498E
:10019000884207D118490B6818490A6818490A604B
:1001A0001C460BE01749884207D117490B681749CD
:1001B0000A6813490A601C4600E0144614490C60A2
:1001C00003461846FFF7D2FF70B91149096851B1CB
:1001D0002CB905200A4C2468A047002005E0611EC8
:1001E00008460446FFE7ECE70120DDF800E001B037
:1001F000704700BF00540040040000202C00002085
:100200002800002000580040080000203000002096
:100210000C00002081B0CDF800E00B46FFF798FFFE
:1002200000EA03029A4240F2000200D10122D0B259
:10023000DDF800E001B0704783B0CDF800E0034680
:100240004FF0000026498B4206D126490C6826490A
:100250000A6826490A600BE025498B4207D12549E7
:10026000086825490A6821490A60044600E00446F6
:1002700022490C60019402931846FFF783FF029B0A
:10028000019C10B94FF6FF7025E00122196862F356
:100290000821196003F214010A68C2F3402111B168
:1002A0004FF6FF7017E025461C4615492046FFF71C
:1002B000B1FF78B91149096859B135B906200B4C1D
:1002C0002468A0474FF6FF7005E0691E0846054602
:1002D000FFE7EAE70020DDF800E003B0704700BF69
:1002E00000540040040000202C00002028000020C2
:1002F0000058004008000020300000200C000020C2
:100300000100030081B0194900EA010108460022FA
:100310000EE0042022E0082020E010201EE0202033
:100320001CE040201AE0802018E040F2001015E0A8
:100330000F498842EDD00F498842ECD00E498842DF
:10034000EBD00E498842EAD00D498842E9D00D49E8
:100350008842E8D00C498842E7D010460B4909682A
:1003600041EA000209490A6001B0704700FCFFFF42
:1003700000080140000C0140001001400014014041
:1003800000180140001C01400020014018100240EC
:1003900083B0CDF800E000F0FF031A09104603F027
:1003A0000F02134614E0194A02921FE0184A029203
:1003B0001CE0184A029219E0174A029216E0174A06
:1003C000029213E0164A029210E0164A02920DE0E1
:1003D0000028E8D00128E9D00228EAD00328EBD091
:1003E0000428ECD00528EDD00628EED0012212B268
:1003F0009A40ADF8042002980A46BDF8041000F0B7
:10040000EFF9DDF800E003B0704700BF00080140DD
:10041000000C014000100140001401400018014090
:10042000001C01400020014082B0CDF800E0029E97
:100430004FF00005564CA04206D1564C2768564C4A
:100440002568564C25600AE0554CA04206D1554C13
:100450002768554C2568514C256000E02F46534CC9
:10046000276000F210054C00A4B22C60B946074684
:10047000904635461E464E493846FFF7CBFE88B9B2
:100480004A4C24686CB1B9F1000F06D10420434CEA
:100490002468A0474FF6FF7076E0A9F1010081467D
:1004A000FFE7E8E70020019729463746019E7C1EBA
:1004B000A04226D206F2100508EB000424782C6036
:1004C0003A4CD4F8009082460D463A493046FFF740
:1004D000A1FE88B9354C24686CB1B9F1000F06D182
:1004E00004202E4C2468A0474FF6FF704CE0A9F181
:1004F00001008146FFE7E8E70AF1010420462946AA
:10050000D5E706F2100508EB000424782C60274C90
:1005100027680D4628493046FFF77CFE70B9234C0A
:10052000246854B137B904201C4C2468A0474FF606
:10053000FF7029E0781E0746FFE7EBE7012D05D1A4
:100540000125346865F3492434601CE001253468D2
:1005500065F308243460154C27683546174928464A
:10056000FFF758FE78B9114C24685CB137B9042004
:100570000A4C2468A0474FF6FF7005E07C1E204619
:100580000746FFE7EAE70020DDF800E002B0704729
:1005900000540040040000202C000020280000200F
:1005A0000058004008000020300000200C0000200F
:1005B000820007008000070084000700010003009C
:1005C00081B000F20C02116000F208021368C3F35C
:1005D000000202B9F8E700F20C02126890B201B012
:1005E0007047FFFF81B000230360CB009BB242EA5B
:1005F000030304689BB244EA03030360051D13145C
:100600001C462B6864F382032B6000F21C05002457
:100610002B6864F3CB232B600124036864F38613F7
:10062000036001B07047FFFF81B0CDF800E081B2F8
:100630000348FFF7C5FFDDF800E001B0704700BFD9
:100640000030014081B0CDF800E081B20348FFF7EF
:10065000B7FFDDF800E001B0704700BF003C00408C
:1006600081B0CDF800E00348FFF7E6FDDDF800E0DB
:1006700001B070470054004081B0CDF800E081B275
:100680000348FFF79DFFDDF800E001B0704700BFB1
:100690000038004081B0CDF800E0012252B23E495E
:1006A0000A6000F268010B686FF0006103EA010262
:1006B000144603F00061C90E0B4602F00041B1F18F
:1006C000004F02D135490A6801E035490A6804F44F
:1006D0007021090C0E464FF6FF7104EA01010D4628
:1006E00004F44011B1F5401F0DD16FF0706102EAC2
:1006F00001010E462A490A686FF070610A402849D4
:100700000A60324616E004F48011B1F5801F09D169
:100710004FF00301B140C94302EA010141F07061A9
:100720000A4607E0610D090105FA01F1C9430A40D3
:1007300042F070622BB1610D090105FA01F10A4323
:10074000FFE704F00041B1F1004F02D113490A6004
:1007500001E013490A6040F2000A81464FEA8A012B
:1007600009EB01010968B1F1FF3F10D009F1340133
:100770004FEA8A03C91809680A4609EB03010968A8
:1007800008461146FFF704FE0AF1010AE6E7DDF824
:1007900000E001B0704700BF000342421C0001406E
:1007A0000400014081B0CDF800E008B413460A46C9
:1007B000C1B20448FFF738FE01B0DDF800E001B037
:1007C000704700BF0054004081B0CDF800E00348FE
:1007D000FFF732FDDDF800E001B07047005800403F
:1007E00081B0CDF800E08CB21546774B00EA0303E8
:1007F0001E461846FFF786FDB4F1FF0F0CD1734B70
:100800009D4203D14FF033333360D9E0422D03D101
:100810004FF044333360D3E04FF6FF739C4214D162
:100820006A4B9D4207D14FF033333360341D4FF094
:1008300033332360C4E0422D07D14FF0443333609B
:10084000341D4FF044332360BAE00021002005F04E
:1008500001030BB100211DE005F0020333B105F4E3
:10086000C0730BB1082100E0042113E005F004037C
:1008700033B105F020030BB1042100E0002109E0B1
:1008800005F0080333B105F020030BB10C2100E0A3
:100890000821FFE74E4B05EA03030BB1032009E0F3
:1008A00005F400730BB1022004E005F480630BB182
:1008B0000120FFE705F00C030BB10143FFE704F053
:1008C000FF039BB2002B3BD0376800201FFA84F84F
:1008D00032462E4608282CD24FF0010303FA00F4CA
:1008E00008EA0403A34222D185004FF00F03AB4076
:1008F000DB4307EA030401FA05F344EA03031D4658
:1009000006F48173B3F5817F05D102F214044FF030
:1009100001038340236006F08203822B05D102F29B
:1009200010044FF00103834023602F46FFE7401C73
:10093000D0E717601FFA88F00F463146164602E0EE
:100940000F462946A0B2B0F1FF0F39D9331DD3F8B5
:1009500000800022082A30D202F208044FF001037E
:1009600003FA04F400EA0403A34224D195004FF0F3
:100970000F03AB40DB4308EA030807FA05F348EA34
:10098000030801F48173B3F5817F07D106F21405E2
:1009900002F208044FF00103A3402B6001F0820330
:1009A000822B07D106F2100502F208044FF0010372
:1009B000A3402B60FFE7521CCCE7331DC3F8008037
:1009C000DDF800E001B0704700FCFFFF14000800F4
:1009D0000008080081B0CDF800E008B413460A46CC
:1009E000C1B20448FFF720FD01B0DDF800E001B01E
:1009F000704700BF0058004081B0CDF800E04FF0D4
:100A0000420289B2FFF7ECFEDDF800E001B070476A
:100A100083B0CDF800E08AB2014690B283B2421EA4
:100A200090B26BB10A78D4B2ADF804000291A0B2D2
:100A3000054C2468A0470299BDF80400491CEDE765
:100A4000DDF800E003B070474000002082B0CDF830
:100A500000E040F20004ADF80440054C2468A047D3
:100A6000BDF90440044320B2DDF800E002B0704755
:100A70005400002083B0CDF800E08DF8040002910E
:100A80000B4C0C4B1C600C4C0C4B1C60012464B2D6
:100A90000B4B1C601046FFF7FDFD029A9DF80410F9
:100AA0000848FFF79FFDDDF800E003B0704700BF86
:100AB000FFFFFFFF34000020450600003800002043
:100AC000BC034242003C004081B0CDF800E0044A43
:100AD00089B2FFF785FEDDF800E001B0704700BF86
:100AE0001400080082B0CDF800E040F20004ADF838
:100AF0000440064C2468A047BDF9041041EA0000F8
:100B000000B2DDF800E002B0704700BF44000020F2
:100B100001490860704700BFB08122420149086066
:100B2000704700BF9881224201490860704700BFAA
:100B3000B081224201490860704700BFA8012242EB
:100B400001490860704700BFAC01224201490860BA
:100B5000704700BFB001224201490860704700BFE2
:100B60009481224283B0CDF800E08DF808001C4942
:100B70000A781C490978914211D100201A4C246846
:100B8000A0470020194C2468A04702A9084601216B
:100B9000FFF73EFF0120144C2468A0471BE01449D6
:100BA0000A7810490978914215D100200F4C246829
:100BB000A04701AA00211170521C9DF80810117065
:100BC000FFF790FF01AA0B4909780123C8B211462B
:100BD0000222FFF73BFFDDF800E003B0704700BFE3
:100BE0001500002026000020480000204C000020B6
:100BF000160000201700002081B0CDF800E040F082
:100C0000B001C8B2FFF7AEFFDDF800E001B07047F9
:100C100083B0CDF800E08DF808001C490A781C4923
:100C20000978914211D100201A4C2468A047012074
:100C3000194C2468A04702A908460121FFF7E8FEE5
:100C40000120144C2468A0471BE014490A7810497D
:100C50000978914215D101200F4C2468A04701AAC0
:100C600060211170521C9DF808101170FFF73AFFB7
:100C700001AA0B4909780123C8B211460222FFF7E5
:100C8000E5FEDDF800E003B0704700BF150000206E
:100C900026000020480000204C0000201600002004
:100CA0002500002001490860704700BF988121425B
:100CB00001490860704700BF9C812142FFFFFFFF90
:100CC00044F67F77C0F212077F1EFDD100BF00BF40
:100CD00000BF00BF00BF704701490860704700BFF8
:100CE0009001214200F208010A6806490A60011DCC
:100CF0000A6805490A6000F218010A6803490A6097
:100D0000704700BF48000020500000204C00002029
:100D100001490860704700BF88012242014908600C
:100D2000704700BFA801224201490860704700BF18
:100D3000B481224281B0CDF800E0A9E0012905D1BB
:100D400040F220016548FFF757FE04E040F2200121
:100D50006248FFF7B9FEBBE0012905D140F2080166
:100D60005F48FFF749FE04E040F208015C48FFF7E6
:100D7000ABFEADE0012905D144F200015948FFF76F
:100D80003BFE04E044F200015648FFF79DFE9FE061
:100D9000012905D140F200415148FFF72DFE04E042
:100DA00040F200414E48FFF78FFE91E0012905D146
:100DB00040F600014A48FFF71FFE04E040F600013C
:100DC0004748FFF781FE83E0012905D141F2000188
:100DD0004348FFF711FE04E041F200014048FFF7ED
:100DE00073FE75E0012905D141F200013D48FFF78E
:100DF00003FE04E041F200013A48FFF765FE67E0B8
:100E0000012905D140F600013648FFF7F5FD04E061
:100E100040F600013348FFF757FE59E0012905D19C
:100E200040F240012F48FFF7E7FD04E040F24001A7
:100E30002C48FFF749FE4BE0012905D140F2200183
:100E40002848FFF7D9FD04E040F220012548FFF7CC
:100E50003BFE3DE0012905D140F240012248FFF769
:100E6000CBFD04E040F240011F48FFF72DFE2FE0CC
:100E7000012905D140F280011B48FFF7BDFD04E0C8
:100E800040F280011848FFF71FFE21E0012020E01A
:100E900000283FF453AF01283FF45EAF02283FF42F
:100EA00069AF03283FF474AF04283FF47FAF0528EF
:100EB0003FF48AAF06283FF495AF0728A0D0082852
:100EC000ACD00928B8D00A28C4D00B28D0D0DDE790
:100ED0000020DDF800E001B0704700BF00080140CD
:100EE0000010014000140140000C014081B0CDF819
:100EF00000E0A9E0012905D140F210016548FFF7A3
:100F00007BFD04E040F210016248FFF7DDFDBBE02D
:100F1000012905D140F204015F48FFF76DFD04E0AF
:100F200040F204015C48FFF7CFFDADE0012905D197
:100F300042F200015948FFF75FFD04E042F2000170
:100F40005648FFF7C1FD9FE0012905D140F200415D
:100F50005148FFF751FD04E040F200414E48FFF7D1
:100F6000B3FD91E0012905D140F600014A48FFF7A1
:100F700043FD04E040F600014748FFF7A5FD83E08C
:100F8000012905D141F200014348FFF735FD04E096
:100F900041F200014048FFF797FD75E0012905D1B6
:100FA00040F201013B48FFF727FD04E040F2010158
:100FB0003848FFF789FD67E0012905D140F200417B
:100FC0003648FFF719FD04E040F200413348FFF7CF
:100FD0007BFD59E0012905D140F200212F48FFF7A0
:100FE0000BFD04E040F200212C48FFF76DFD4BE0C3
:100FF000012905D140F200112848FFF7FDFC04E06B
:1010000040F200112548FFF75FFD3DE0012905D1C1
:1010100040F240012248FFF7EFFC04E040F24001BB
:101020001F48FFF751FD2FE0012905D140F2800153
:101030001B48FFF7E1FC04E040F280011848FFF78D
:1010400043FD21E0012020E000283FF453AF0128B8
:101050003FF45EAF02283FF469AF03283FF474AF5A
:1010600004283FF47FAF05283FF48AAF06283FF4F9
:1010700095AF0728A0D00828ACD00928B8D00A28F6
:10108000C4D00B28D0D0DDE70020DDF800E001B0AF
:10109000704700BF000801400010014000140140EB
:1010A000000C014081B0CDF800E0011D0A68016824
:1010B000C8B21146034AFFF7DDFC0020DDF800E06E
:1010C00001B07047C41B0000026803490A60011D9B
:1010D0000A6802490A60704740000020580000205A
:1010E00081B0CDF800E0011D0A680168C8B2114660
:1010F000034AFFF7BFFC0020DDF800E001B07047B5
:10110000C41B000001490860704700BFAC012242C7
:1011100001490860704700BF9C8121420149086075
:10112000704700BF9881214201490860704700BFA5
:101130009401214201490860704700BFB8812242F2
:1011400001490860704700BF8C01224201490860D4
:10115000704700BFA081224201490860704700BF6C
:10116000A881224201490860704700BF80012142E6
:1011700001490860704700BFB00122420149086080
:10118000704700BFA481224284B0CDF800E00390F4
:1011900000218DF808109DF80810052929D29DF826
:1011A0000800FFF729FD1020FFF7DCFC4020FFF7C7
:1011B000D9FC0023D8B2602815D29DF80820602100
:1011C00009B2514309B20A1812B203998918097871
:1011D0008DF80400C8B2FFF71BFD9DF80400411C08
:1011E000CBB2D8B2E7E79DF80810491C8DF808107B
:1011F000D1E7DDF800E004B07047FFFF83B0CDF821
:1012000000E08DF804008DF80810114A1278D0B271
:10121000FFF7A8FC0020FFF7A5FC9DF80400FFF7EE
:10122000A1FC0020FFF79EFC9DF80800FFF79AFC48
:101230000020FFF797FCFF20FFF794FC054A127887
:10124000D0B2FFF78FFCDDF800E003B0704700BFBD
:10125000120000201100002083B0CDF800E08DF8CE
:1012600004008DF80810164A1278D0B2FFF77AFC05
:101270000020FFF777FC134A1278D0B2FFF772FC18
:10128000114A1278D0B2FFF76DFC0020FFF76AFC1C
:101290009DF80400FFF766FC0020FFF763FC9DF853
:1012A0000800FFF75FFC0120FFF75CFC074A12789B
:1012B000D0B2FFF757FCDDF800E003B0704700BF85
:1012C0000200002003000020100000201100002078
:1012D00082B0CDF800E08DF8040006490978C8B264
:1012E000FFF740FC9DF80400FFF73CFCDDF800E050
:1012F00002B070472000002083B0CDF800E08DF8E8
:1013000004008DF80810114A1278D0B2FFF72AFCB9
:101310000020FFF727FC9DF80400FFF723FC0020C6
:10132000FFF720FC9DF80800FFF71CFC0020FFF7EA
:1013300019FCFF20FFF716FC054A1278D0B2FFF720
:1013400011FCDDF800E003B0704700BF130000207F
:101350001100002081B0CDF800E02E20FFF702FC44
:10136000DDF800E001B0704781B0CDF800E0034641
:101370000846FFF7A9FE1846FFF7B4FC034A1378A6
:10138000034A1370DDF800E001B07047150000203B
:101390002600002081B0CDF800E08B4609E05846D9
:1013A000FFF780FE0AE05846FFF79AFE06E00120AC
:1013B00004E00028F3D00128F5D0F8E7DDF800E0DC
:1013C00001B0704782B0CDF800E000208DF8040035
:1013D0000020394C2468A0479DF80400C1B20A29B6
:1013E00004D2FFF76DFC491CC9B2F8E700208DF864
:1013F00004000120304C2468A0479DF80400C1B2CD
:101400000A2904D2FFF75CFC491CC9B2F8E72B4853
:101410000078FFF7A7FB2A480078FFF7A3FB80209E
:10142000FFF7A0FB27480078FFF79CFB2720FFF77A
:1014300099FB25480078FFF795FB0020FFF792FB0A
:1014400022480078FFF78EFB21480078FFF78AFBDF
:101450001420FFF787FB1F480078FFF783FB1E4827
:101460000078FFF77FFB1220FFF77CFB1B4800781A
:10147000FFF778FBAF20FFF775FB19480078FFF7FF
:1014800071FB2520FFF76EFB16480078FFF76AFB1B
:101490002020FFF767FB14480078FFF763FB134831
:1014A0000078FFF75FFB12480078FFF75BFBDDF881
:1014B00000E002B0704700BF50000020180000207C
:1014C000190000201A0000201B0000201C00002032
:1014D0001D0000201E0000201F0000202000002012
:1014E0002100002022000020230000200100002015
:1014F0002400002083B0CDF800E08DF804008DF8C2
:101500000810164A1278D0B2FFF72CFB0020FFF724
:1015100029FB134A1278D0B2FFF724FB114A127844
:10152000D0B2FFF71FFB0020FFF71CFB9DF8040063
:10153000FFF718FB0020FFF715FB9DF80800FFF7E9
:1015400011FB0120FFF70EFB074A1278D0B2FFF71C
:1015500009FBDDF800E003B0704700BF0200002087
:1015600003000020140000201100002081B0CDF8FD
:1015700000E05FFA81F95FFA82FA0FE05FFA8AF120
:101580005FFA89F0FFF7B2FC0DE05FFA8AF15FFACB
:1015900089F0FFF7CFFB06E0012004E00028EDD042
:1015A0000128F2D0F8E7DDF800E001B07047FFFF56
:1015B00081B01548006840F00101134801601349EB
:1015C0001348016010480168124801400E4801604C
:1015D0000D4801686FF4802001400B4801600C4801
:1015E00001686FF4FE000140094801600648016887
:1015F0006FF0A0500140044801604FF00001064820
:10160000016001B0704700BF001002400000FFF011
:1016100004100240FFFFF6FE2C10024081B04FF094
:1016200000094FF0000CBDEB0A0F04DCBDEB0B0F03
:1016300001DBD446EA464BF8049BBBEB0A0FFAD118
:10164000BCEB0A0F05DDE246D9F800B00BF1040B44
:10165000F1E701B07047FFFF81B0CDF800E0002254
:1016600006210020FFF782FF002201210020FFF762
:101670007DFF002202210020FFF778FF0948014684
:101680000020FFF787FE44F67F77C0F2120700BF05
:1016900000BF7F1EFDD100BF00BF00BFDDF800E02E
:1016A00001B07047B81C000081B0CDF800E00A49D5
:1016B0000A48FFF759FEFFF785FE44F67F77C0F230
:1016C00012077F1EFDD100BF00BF00BF00BF00BFDB
:1016D000DDF800E001B07047C01C0000301C0000C5
:1016E00081B01CF8019B0BF8019BBBEB0A0FF8D1F2
:1016F00001B07047FFFFFFFF82B0CDF800E0564811
:10170000FFF742FD48F67F57C0F25B0700BF00BFFE
:101710007F1EFDD100BF00BF00BF50480078FFF71B
:1017200021FA48F67F57C0F25B077F1EFDD100BF4C
:1017300000BF00BF00BF00BF49480078FFF712FAA2
:1017400048F67F57C0F25B077F1EFDD100BF00BF88
:1017500000BF00BF00BFAF21002914D98DF80410CD
:10176000C8B2FFF7B5FD9DF804104DF2BF47C0F2B7
:1017700001077F1EFDD100BF00BF00BF00BF00BF3B
:10178000491EC9B2E8E70021AF2914D28DF8041030
:10179000C8B2FFF79DFD9DF804104DF2BF47C0F29F
:1017A00001077F1EFDD100BF00BF00BF00BF00BF0B
:1017B000491CC9B2E8E705210020FFF79DFD41F66D
:1017C000FF27C0F2B70700BF00BF7F1EFDD100BFDB
:1017D00000BF00BFFFF7BEFD1F48FFF7D5FC052186
:1017E0000020FFF70BFD41F6FF27C0F2B70700BF4F
:1017F00000BF7F1EFDD100BF00BF00BFFFF7AAFDE5
:101800001548FFF7C1FC05210020FFF725FD41F633
:10181000FF27C0F2B70700BF00BF7F1EFDD100BF8A
:1018200000BF00BFFFF796FD0B48FFF7ADFC052199
:101830000020FFF75FFE41F6FF27C0F2B70700BFA9
:1018400000BF7F1EFDD100BF00BF00BFFFF782FDBC
:10185000DDF800E002B07047E4190000000000204D
:101860000100002081B002490248016001B07047C8
:10187000401901003C00002081B0FEE701B0704734
:1018800081B0CDF800E0464A464B474C47494BF6FD
:101890008030814206D94648006840F00201444841
:1018A000016011E045F6C050814206D94048006809
:1018B00040F001013E48016006E03D4801686FF0DC
:1018C000070001403A480160FFF772FE39480360A3
:1018D00039480460394802EA00013948016002F0E1
:1018E000010040B119463648006800F002000028A7
:1018F00000D1F8E700E0194602F4803040B10B4611
:101900002F48006800F40030002800D1F8E700E01C
:101910000B4602F0805068B12948006840F08051C1
:10192000274801602648006800F00050002800D1D8
:10193000F8E7FFE702F0806078B12148006840F0E6
:1019400080611F48016011461A461D48006800F07A
:101950000060002800D1F8E701E011461A4601F0C6
:10196000807070B11648006840F0807114480160C2
:1019700011461348006800F0007000B9F9E70A4604
:10198000FFE70C48006800F00C01900000F00C002C
:10199000814200D0F5E7DDF800E001B0704700BFFC
:1019A0008100010502841D00440601004019010068
:1019B00000200240041002402C100240FFFF0F00E4
:1019C00000100240FFF75CFF00F0BEF9FFF74AFF8E
:1019D00000F07AF9FFF740FEFFF766FEFFF78CFE96
:1019E000FCE7FEE7FFFF3F1F0F07070303030303A7
:1019F0000303E3E303030303C3E3C303030303E3B7
:101A0000E30303030303030303C3C3636363636366
:101A1000E3E3030363636363636363E3E303030376
:101A20000303030303E3E3030303C3C363636363C6
:101A3000C3C3030303030303030303030307070FE2
:101A40001F3FFFFFFF00000000000000000000003B
:101A5000000000031FF8C0FE1F001FFEC0F81F0398
:101A600000000000000000003FFFC08080808080F8
:101A7000FFFF00008C8C8C8C8C8C8CFFFF00008016
:101A80008080808080FFFF00003FFFC080808080DA
:101A9000C0FF3F0000000000000000000000000048
:101AA000000000FFFF000000000000000000808038
:101AB00080808080808081010000000101000000A2
:101AC0000000000000000000000000010101818111
:101AD000010180800101C1C1C181010101000081BA
:101AE000C1C1C101010101000000000001010101AB
:101AF00000000000000000008080000000000000E6
:101B0000000000FFFF000000000000000000313175
:101B10003131313131FFFF0000F0F81C0C0C1CF8A2
:101B2000F0000C0C18FCFC0000048CF870E0FFFFC7
:101B30000000FDFD0000FFFF031FFCC000C0FC1FF4
:101B400003FFFF00000000000C3CF0C000C0F03CB0
:101B50000C00F0F81C0C0C18FFFF00000000000047
:101B6000000000FFFFFEF8F0E0C0C08080808686A5
:101B70008686868686878780808183878686878318
:101B8000818080808087878080868781808087872A
:101B90008080878780808787808081878687818013
:101BA0008087878080808080808081879FBFB1B060
:101BB00080808183878686838787808080C0C0E01D
:101BC000F0F8FEFF2A0000002B0000002C000000AF
:101BD000FFFFFFFF00000000000000000000000009
:101BE00000000000000000000000000000000000F5
:101BF00000000000000000001808000018080000A5
:101C000018080000000000000000000000000000B4
:101C100000000000000000000000000000000000C4
:101C2000000000000000000000000000001120087B
:101C3000D90C0000110D0000290D00001D0D000041
:101C4000051100007111000065110000591100001C
:101C50007D1100004D1100001D1100001111000048
:101C6000FFFFFFFFFFFFFFFFFFFFFFFFFFFFFFFF84
:101C7000FFFFFFFFFFFFFFFFFFFFFFFFFFFFFFFF74
:101C8000FFFFFFFFFFFFFFFFFFFFFFFFFFFFFFFF64
:101C9000A7A6A3270000000000000000000000002D
:101CA000292F27262A00013CAED5A8D3408DC8DABB
:101CB00081D9DBA4AF3DFFFF070000000403000053
:101CC00045060000FFFFFFFF00B5DFF814B0DFF8A6
:101CD00014A0DFF814C0FFF703FD00BD704700BF7C
:101CE0000000002026000020901C0000FFFFFFFFE6
:101CF000FFFFFFFFFFFFFFFFFFFFFFFFFFFFFFFFF4
:101D0000FFFFFFFFFFFFFFFFFFFFFFFFFFFFFFFFE3
:101D1000FFFFFFFFFFFFFFFFFFFFFFFFFFFFFFFFD3
:101D2000FFFFFFFFFFFFFFFFFFFFFFFFFFFFFFFFC3
:101D3000FFFFFFFFFFFFFFFFFFFFFFFFFFFFFFFFB3
:101D4000FFFFFFFFFFFFFFFF00B5DFF810B0DFF878
:101D500010A0FFF763FC00BD704700BF000000202B
:101D60005C000020FFFFFFFFFFFFFFFFFFFFFFFF03
:00000001FF
