:020000040800F2
:10000000FCFF00202D1B0000E1190000E119000099
:10001000E1190000E1190000E1190000E1190000F8
:10002000E1190000E1190000E1190000E1190000E8
:10003000E1190000E1190000E1190000E1190000D8
:10004000E1190000E1190000E1190000E1190000C8
:10005000E1190000E1190000E1190000E1190000B8
:10006000E1190000E1190000E1190000E1190000A8
:10007000E1190000E1190000E1190000E119000098
:10008000E1190000E1190000E1190000E119000088
:10009000E1190000E1190000E1190000E119000078
:1000A000E1190000E1190000E1190000E119000068
:1000B000E1190000E1190000E1190000E119000058
:1000C000E1190000E1190000E1190000E119000048
:1000D000E1190000E1190000E1190000E119000038
:1000E000E1190000E1190000E1190000E119000028
:1000F000E1190000E1190000E1190000E119000018
:10010000E1190000E1190000E1190000E119000007
:10011000E1190000E1190000E1190000E1190000F7
:10012000E1190000E1190000E1190000E1190000E7
:10013000E1190000E1190000E1190000E1190000D7
:10014000E1190000E1190000E1190000E1190000C7
:1001500081B000F218010A68C2F3400181F0010188
:10016000C9B2C8B201B0704781B000F214010A6888
:1001700000F218010968090442EA0101084601B0C9
:100180007047FFFF81B0CDF800E00B46FFF7ECFFB2
:1001900000EA03029A4240F2000200D10122D0B2EA
:1001A000DDF800E001B0704701480068704700BF0B
:1001B0002800002081B0CDF800E04FF0000219497E
:1001C000884207D118490B6818490A6818490A601B
:1001D0001C460BE01749884207D117490B6817499D
:1001E0000A6813490A601C4600E0144614490C6072
:1001F00003461846FFF7ACFF70B91149096851B1C1
:100200002CB905200A4C2468A047002005E0611E97
:1002100008460446FFE7ECE70120DDF800E001B006
:10022000704700BF00540040040000203000002050
:100230002C0000200058004008000020340000205E
:100240000C00002083B0CDF800E000F0FF031A0995
:10025000104603F00F02134614E0194A02921FE001
:10026000184A02921CE0184A029219E0174A0292B8
:1002700016E0174A029213E0164A029210E0164A5C
:1002800002920DE00028E8D00128E9D00228EAD047
:100290000328EBD00428ECD00528EDD00628EED0BA
:1002A000012212B29A40ADF8042002980A46BDF825
:1002B000041000F085FADDF800E003B0704700BFDD
:1002C00000080140000C01400010014000140140F2
:1002D00000180140001C01400020014082B0CDF810
:1002E00000E0029E4FF00005564CA04206D1564C4D
:1002F0002768564C2568564C25600AE0554CA042AC
:1003000006D1554C2768554C2568514C256000E0B6
:100310002F46534C276000F210054C00A4B22C600D
:10032000B9460746904635461E464E493846FFF7C1
:1003300029FF88B94A4C24686CB1B9F1000F06D185
:100340000420434C2468A0474FF6FF7076E0A9F1E3
:1003500001008146FFE7E8E700200197294637467C
:10036000019E7C1EA04226D206F2100508EB000476
:1003700024782C603A4CD4F8009082460D463A49D5
:100380003046FFF7FFFE88B9354C24686CB1B9F1EF
:10039000000F06D104202E4C2468A0474FF6FF70B2
:1003A0004CE0A9F101008146FFE7E8E70AF101040A
:1003B00020462946D5E706F2100508EB000424780C
:1003C0002C60274C27680D4628493046FFF7DAFE97
:1003D00070B9234C246854B137B904201C4C2468EC
:1003E000A0474FF6FF7029E0781E0746FFE7EBE7CE
:1003F000012D05D10125346865F3492434601CE0E2
:100400000125346865F308243460154C27683546A7
:1004100017492846FFF7B6FE78B9114C24685CB13D
:1004200037B904200A4C2468A0474FF6FF7005E056
:100430007C1E20460746FFE7EAE70020DDF800E0E3
:1004400002B070470054004004000020300000203B
:100450002C0000200058004008000020340000203C
:100460000C000020820007008000070084000700C5
:100470000100030082B0CDF800E003461946019167
:10048000FFF792FE40F2E83100FB01F201990A60A9
:100490001F490978C1F30311C8B21E490918087829
:1004A000C0B21A1D1968C140116019490988C1F309
:1004B000022188B2174909180878C0B203F208026D
:1004C000191D0968C140116011490988C1F3C22191
:1004D00088B2104909180878C0B203F20C02191D3D
:1004E0000968C14011600A490988C1F3813188B2A5
:1004F000094909180978C8B203F2100203F20C0185
:100500000968B1FBF0F11160DDF800E002B070475E
:10051000041002401E1E0000C217000083B0CDF878
:1005200000E003464FF0000026498B4206D12649E1
:100530000C6826490A6826490A600BE025498B4267
:1005400007D12549086825490A6821490A600446F7
:1005500000E0044622490C60019402931846FFF71C
:1005600029FE029B019C10B94FF6FF7025E0012285
:10057000196862F30821196003F214010A68C2F3D2
:10058000402111B14FF6FF7017E025461C46154972
:100590002046FFF7F7FD78B91149096859B135B917
:1005A00006200B4C2468A0474FF6FF7005E0691E3B
:1005B00008460546FFE7EAE70020DDF800E003B063
:1005C000704700BF005400400400002030000020AD
:1005D0002C000020005800400800002034000020BB
:1005E0000C0000200100030081B0CDF800E00122E2
:1005F00052B23E490A6000F268010B686FF0006178
:1006000003EA0102144603F00061C90E0B4602F032
:100610000041B1F1004F02D135490A6801E0354986
:100620000A6804F47021090C0E464FF6FF7104EAC3
:1006300001010D4604F44011B1F5401F0DD16FF0DA
:10064000706102EA01010E462A490A686FF0706182
:100650000A4028490A60324616E004F48011B1F5D8
:10066000801F09D14FF00301B140C94302EA0101E3
:1006700041F070610A4607E0610D090105FA01F1D8
:10068000C9430A4042F070622BB1610D090105FABD
:1006900001F10A43FFE704F00041B1F1004F02D13C
:1006A00013490A6001E013490A6040F2000A8146DA
:1006B0004FEA8A0109EB01010968B1F1FF3F10D04F
:1006C00009F134014FEA8A03C91809680A4609EB9F
:1006D0000301096808461146FFF7B4FD0AF1010A53
:1006E000E6E7DDF800E001B0704700BF00034242DA
:1006F0001C0001400400014081B0194900EA0101D9
:10070000084600220EE0042022E0082020E010200D
:100710001EE020201CE040201AE0802018E040F27B
:10072000001015E00F498842EDD00F498842ECD007
:100730000E498842EBD00E498842EAD00D498842E2
:10074000E9D00D498842E8D00C498842E7D01046EC
:100750000B49096841EA000209490A6001B0704783
:1007600000FCFFFF00080140000C014000100140A8
:100770000014014000180140001C0140002001400D
:100780001810024081B0CDF800E00348FFF7C6FE24
:10079000DDF800E001B070470054004081B0CDF8B2
:1007A00000E008B413460A46C1B20448FFF796FDBC
:1007B00001B0DDF800E001B0704700BF0058004014
:1007C00081B0CDF800E08CB21546774B00EA030308
:1007D0001E461846FFF790FFB4F1FF0F0CD1734B84
:1007E0009D4203D14FF033333360D9E0422D03D122
:1007F0004FF044333360D3E04FF6FF739C4214D183
:100800006A4B9D4207D14FF033333360341D4FF0B4
:1008100033332360C4E0422D07D14FF044333360BB
:10082000341D4FF044332360BAE00021002005F06E
:1008300001030BB100211DE005F0020333B105F403
:10084000C0730BB1082100E0042113E005F004039C
:1008500033B105F020030BB1042100E0002109E0D1
:1008600005F0080333B105F020030BB10C2100E0C3
:100870000821FFE74E4B05EA03030BB1032009E013
:1008800005F400730BB1022004E005F480630BB1A2
:100890000120FFE705F00C030BB10143FFE704F073
:1008A000FF039BB2002B3BD0376800201FFA84F86F
:1008B00032462E4608282CD24FF0010303FA00F4EA
:1008C00008EA0403A34222D185004FF00F03AB4096
:1008D000DB4307EA030401FA05F344EA03031D4678
:1008E00006F48173B3F5817F05D102F214044FF051
:1008F00001038340236006F08203822B05D102F2BC
:1009000010044FF00103834023602F46FFE7401C93
:10091000D0E717601FFA88F00F463146164602E00E
:100920000F462946A0B2B0F1FF0F39D9331DD3F8D5
:1009300000800022082A30D202F208044FF001039E
:1009400003FA04F400EA0403A34224D195004FF013
:100950000F03AB40DB4308EA030807FA05F348EA54
:10096000030801F48173B3F5817F07D106F2140502
:1009700002F208044FF00103A3402B6001F0820350
:10098000822B07D106F2100502F208044FF0010392
:10099000A3402B60FFE7521CCCE7331DC3F8008057
:1009A000DDF800E001B0704700FCFFFF1400080014
:1009B0000008080088B0CDF800E00E46554B98427C
:1009C0000DD1012464B2544B1C60544C544B1C6038
:1009D000544C554B1C60554C554B1C600FE0554B0F
:1009E00098420CD1012464B2534B1C60534C4C4BC5
:1009F0001C60534C4C4B1C60524C4D4B1C60019680
:100A000002901046FFF7F0FD0298019E031D1B683F
:100A10009CB26FF03F0304EA03039DB203AB019065
:100A20001846FFF727FD0198059F059C464BB4FB30
:100A3000F3F399B29BB245EA0304A4B2031D1C6010
:100A40000024036864F30003036000223F4B9E42CE
:100A500012D87300B7FBF3F4A4B2042C02D204231F
:100A60001C46FFE742EA04039AB200F220044B1C42
:100A70009BB2236091B23FE0032306FB03F4B7FB74
:100A8000F4F31FFA83F8192306FB03F5B7FBF5F31C
:100A90001FFA83F908FB04F409FB05F33C1BFB1A5E
:100AA0009C4205D203237343B7FBF3F4A4B206E0E0
:100AB00019237343B7FBF3F4A4B244F4804440F623
:100AC000FF7304EA030313B944F00104FFE744F49D
:100AD00000439BB21A4392B200F2200540F22C135D
:100AE00001FB03F4A4B240F2E833B4FBF3F39BB28E
:100AF0005B1C9BB22B6091B200F21C0319600023B7
:100B000003600124036864F300030360DDF800E080
:100B100008B0704700540040D403424285070000EB
:100B200038000020FFFFFFFF3C000020690B0000A1
:100B30004000002000580040D8034242510B000002
:100B4000FFFFFFFF9D07000040420F00A08601004D
:100B500081B0CDF800E00348FFF7E0FCDDF800E0ED
:100B600001B070470058004081B0CDF800E008B4F3
:100B700013460A46C1B20448FFF7B0FB01B0DDF8E6
:100B800000E001B0704700BF0054004081B0CDF8D4
:100B900000E04FF0420289B2FFF712FEDDF800E0FC
:100BA00001B0704782B0CDF800E040F20004ADF82B
:100BB0000440064C2468A047BDF9041041EA000037
:100BC00000B2DDF800E002B0704700BF4C0000202A
:100BD00083B0CDF800E08AB2014690B283B2421EE3
:100BE00090B26BB10A78D4B2ADF804000291A0B211
:100BF000054C2468A0470299BDF80400491CEDE7A4
:100C0000DDF800E003B070475C00002081B0CDF853
:100C100000E00A4601460348FFF7CCFEDDF800E09D
:100C200001B070470054004082B0CDF800E040F2BF
:100C30000004ADF80440054C2468A047BDF9044009
:100C4000044320B2DDF800E002B0704750000020FD
:100C500081B0CDF800E0044A89B2FFF7B1FDDDF8BC
:100C600000E001B0704700BF1400080001490860AF
:100C7000704700BFB001224201490860704700BFC1
:100C8000B081224201490860704700BFB081224212
:100C900001490860704700BFAC0122420149086069
:100CA000704700BFB881224201490860704700BF09
:100CB0008C01224201490860704700BFA80122420E
:100CC00001490860704700BF9881224283B0CDF887
:100CD00000E08DF808001C490A781C490978914207
:100CE00011D100201A4C2468A0470020194C246818
:100CF000A04702A908460121FFF76AFF0120144C12
:100D00002468A0471BE014490A78104909789142E9
:100D100015D100200F4C2468A04701AA00211170B2
:100D2000521C9DF808101170FFF73CFF01AA0B49F7
:100D300009780123C8B211460222FFF775FFDDF8DA
:100D400000E003B0704700BF16000020260000201E
:100D50004400002048000020170000201900002057
:100D600081B0CDF800E040F0B001C8B2FFF7AEFFAF
:100D7000DDF800E001B0704783B0CDF800E08DF8F9
:100D800008001C490A781C490978914211D10020B9
:100D90001A4C2468A0470120194C2468A04702A9D6
:100DA00008460121FFF714FF0120144C2468A047D6
:100DB0001BE014490A7810490978914215D10120A5
:100DC0000F4C2468A04701AA60211170521C9DF8A5
:100DD00008101170FFF7E6FE01AA0B4909780123FC
:100DE000C8B211460222FFF71FFFDDF800E003B092
:100DF000704700BF1600002026000020440000209D
:100E0000480000201700002018000020A0860100E4
:100E100044F67F77C0F212077F1EFDD100BF00BFEE
:100E200000BF00BF00BF704701490860704700BFA6
:100E30009481224201490860704700BF9881214295
:100E400001490860704700BF9C8121420149086048
:100E5000704700BF9001214200F208010A6806496C
:100E60000A60011D0A6805490A6000F218010A6853
:100E700003490A60704700BF44000020580000206A
:100E80004800002001490860704700BFB481224239
:100E900001490860704700BF880122420268064984
:100EA0000A60011D0A6805490A6000F208010A6823
:100EB00003490A60704700BF4C000020500000202A
:100EC0005400002081B0CDF800E0A9E0012905D14F
:100ED00040F220016548FFF759FE04E040F220018E
:100EE0006248FFF7B5FEBBE0012905D140F20801D9
:100EF0005F48FFF74BFE04E040F208015C48FFF753
:100F0000A7FEADE0012905D144F200015948FFF7E1
:100F10003DFE04E044F200015648FFF799FE9FE0D1
:100F2000012905D140F200415148FFF72FFE04E0AE
:100F300040F200414E48FFF78BFE91E0012905D1B8
:100F400040F600014A48FFF721FE04E040F60001A8
:100F50004748FFF77DFE83E0012905D141F20001FA
:100F60004348FFF713FE04E041F200014048FFF759
:100F70006FFE75E0012905D141F200013D48FFF700
:100F800005FE04E041F200013A48FFF761FE67E028
:100F9000012905D140F600013648FFF7F7FD04E0CE
:100FA00040F600013348FFF753FE59E0012905D10F
:100FB00040F240012F48FFF7E9FD04E040F2400114
:100FC0002C48FFF745FE4BE0012905D140F22001F6
:100FD0002848FFF7DBFD04E040F220012548FFF739
:100FE00037FE3DE0012905D140F240012248FFF7DC
:100FF000CDFD04E040F240011F48FFF729FE2FE03D
:10100000012905D140F280011B48FFF7BFFD04E034
:1010100040F280011848FFF71BFE21E0012020E08C
:1010200000283FF453AF01283FF45EAF02283FF49D
:1010300069AF03283FF474AF04283FF47FAF05285D
:101040003FF48AAF06283FF495AF0728A0D00828C0
:10105000ACD00928B8D00A28C4D00B28D0D0DDE7FE
:101060000020DDF800E001B0704700BF000801403B
:101070000010014000140140000C014081B0CDF887
:1010800000E0A9E0012905D140F210016548FFF711
:101090007DFD04E040F210016248FFF7D9FDBBE09E
:1010A000012905D140F204015F48FFF76FFD04E01C
:1010B00040F204015C48FFF7CBFDADE0012905D10A
:1010C00042F200015948FFF761FD04E042F20001DD
:1010D0005648FFF7BDFD9FE0012905D140F20041D0
:1010E0005148FFF753FD04E040F200414E48FFF73E
:1010F000AFFD91E0012905D140F600014A48FFF714
:1011000045FD04E040F600014748FFF7A1FD83E0FC
:10111000012905D141F200014348FFF737FD04E002
:1011200041F200014048FFF793FD75E0012905D128
:1011300040F201013B48FFF729FD04E040F20101C4
:101140003848FFF785FD67E0012905D140F20041ED
:101150003648FFF71BFD04E040F200413348FFF73B
:1011600077FD59E0012905D140F200212F48FFF712
:101170000DFD04E040F200212C48FFF769FD4BE033
:10118000012905D140F200112848FFF7FFFC04E0D7
:1011900040F200112548FFF75BFD3DE0012905D134
:1011A00040F240012248FFF7F1FC04E040F2400128
:1011B0001F48FFF74DFD2FE0012905D140F28001C6
:1011C0001B48FFF7E3FC04E040F280011848FFF7FA
:1011D0003FFD21E0012020E000283FF453AF01282B
:1011E0003FF45EAF02283FF469AF03283FF474AFC9
:1011F00004283FF47FAF05283FF48AAF06283FF468
:1012000095AF0728A0D00828ACD00928B8D00A2864
:10121000C4D00B28D0D0DDE70020DDF800E001B01D
:10122000704700BF00080140001001400014014059
:10123000000C014081B0CDF800E001680846044987
:10124000FFF7E4FC0020DDF800E001B0704700BFCC
:101250002C1D000081B0CDF800E00168084604496B
:10126000FFF7D4FC0020DDF800E001B0704700BFBC
:101270002C1D000001490860704700BFA8012242F0
:1012800001490860704700BF94012142014908608C
:10129000704700BFA481224201490860704700BF27
:1012A000A081224201490860704700BF9C81214211
:1012B00001490860704700BF9881214201490860D8
:1012C000704700BFB001224201490860704700BF6B
:1012D0008001214201490860704700BFA881224275
:1012E00001490860704700BFAC01224283B0CDF8CD
:1012F00000E08DF804008DF80810114A1278D0B281
:10130000FFF7E4FC0020FFF7E1FC9DF80400FFF785
:10131000DDFC0020FFF7DAFC9DF80800FFF7D6FCA3
:101320000020FFF7D3FCFF20FFF7D0FC054A12781E
:10133000D0B2FFF7CBFCDDF800E003B0704700BF90
:10134000150000200300002083B0CDF800E08DF8E8
:1013500004008DF80810164A1278D0B2FFF7B6FCD8
:101360000020FFF7B3FC134A1278D0B2FFF7AEFCAF
:10137000114A1278D0B2FFF7A9FC0020FFF7A6FCB3
:101380009DF80400FFF7A2FC0020FFF79FFC9DF8EA
:101390000800FFF79BFC0120FFF798FC074A127832
:1013A000D0B2FFF793FCDDF800E003B0704700BF58
:1013B0001100002012000020130000200300002074
:1013C00083B0CDF800E08DF804008DF80810114AC4
:1013D0001278D0B2FFF77AFC0020FFF777FC9DF877
:1013E0000400FFF773FC0020FFF770FC9DF8080075
:1013F000FFF76CFC0020FFF769FCFF20FFF766FC9D
:10140000054A1278D0B2FFF761FCDDF800E003B0C6
:10141000704700BF020000200300002082B0CDF81A
:1014200000E08DF8040006490978C8B2FFF74EFCC9
:101430009DF80400FFF74AFCDDF800E002B07047B9
:101440001000002084B0CDF800E0039000218DF85A
:1014500008109DF80810052929D29DF80800FFF70B
:101460007FFC1020FFF732FC4020FFF72FFC002309
:10147000D8B2602815D29DF80820602109B25143E6
:1014800009B20A1812B20399891809788DF8040074
:10149000C8B2FFF771FC9DF80400411CCBB2D8B272
:1014A000E7E79DF80810491C8DF80810D1E7DDF832
:1014B00000E004B07047FFFF81B0CDF800E02E20BF
:1014C000FFF704FCDDF800E001B0704781B0CDF813
:1014D00000E00446074B1A700846FFF7DFFC204681
:1014E000FFF7BAFC044B1C78044B1C70DDF800E0DD
:1014F00001B07047270000201700002026000020C0
:1015000082B0CDF800E000208DF804000020394CB6
:101510002468A0479DF80400C1B20A2904D2FFF74D
:1015200077FC491CC9B2F8E700208DF804000120BF
:10153000304C2468A0479DF80400C1B20A2904D2A7
:10154000FFF766FC491CC9B2F8E72B480078FFF7A3
:10155000BDFB2A480078FFF7B9FB8020FFF7B6FBF8
:1015600027480078FFF7B2FB2720FFF7AFFB25489D
:101570000078FFF7ABFB0020FFF7A8FB22480078BC
:10158000FFF7A4FB21480078FFF7A0FB1420FFF72A
:101590009DFB1F480078FFF799FB1E480078FFF776
:1015A00095FB1220FFF792FB1B480078FFF78EFB9C
:1015B000AF20FFF78BFB19480078FFF787FB25204A
:1015C000FFF784FB16480078FFF780FB2020FFF729
:1015D0007DFB14480078FFF779FB13480078FFF78C
:1015E00075FB12480078FFF771FBDDF800E002B0F0
:1015F000704700BF580000201A0000201B00002088
:101600001C0000201D0000201E0000201F000020E4
:1016100020000020210000201000002022000020D7
:1016200023000020240000200100002025000020CD
:1016300081B0CDF800E08B4609E05846FFF70AFE7E
:101640000AE05846FFF7F6FD06E0012004E0002816
:10165000F3D00128F5D0F8E7DDF800E001B07047DD
:1016600083B0CDF800E08DF804008DF80810164A1C
:101670001278D0B2FFF72AFB0020FFF727FB134AAE
:101680001278D0B2FFF722FB114A1278D0B2FFF7DE
:101690001DFB0020FFF71AFB9DF80400FFF716FB67
:1016A0000020FFF713FB9DF80800FFF70FFB012058
:1016B000FFF70CFB074A1278D0B2FFF707FBDDF803
:1016C00000E003B0704700BF1100002012000020AE
:1016D000140000200300002081B0CDF800E05FFA84
:1016E00081F95FFA82FA0FE05FFA8AF15FFA89F016
:1016F000FFF7C4FC0DE05FFA8AF15FFA89F0FFF7AB
:10170000E1FB06E0012004E00028EDD00128F2D042
:10171000F8E7DDF800E001B07047FFFF81B0154841
:10172000006840F00101134801601349134801604B
:1017300010480168124801400E4801600D480168D8
:101740006FF4802001400B4801600C4801686FF481
:10175000FE00014009480160064801686FF0A05092
:101760000140044801604FF000010648016001B0EB
:10177000704700BF001002400000FFF0041002405C
:10178000FFFFF6FE2C10024081B04FF000094FF031
:10179000000CBDEB0A0F04DCBDEB0B0F01DBD446E4
:1017A000EA464BF8049BBBEB0A0FFAD1BCEB0A0FDD
:1017B00005DDE246D9F800B00BF1040BF1E701B00A
:1017C000704702040608FFFF81B0CDF800E0002258
:1017D00006210020FFF780FF002201210020FFF7F3
:1017E0007BFF0A4801460020FFF722FF44F67F777F
:1017F000C0F2120700BF00BF7F1EFDD100BF00BFB7
:1018000000BFDDF800E001B0704700BF0C0E000023
:1018100081B0CDF800E000220A490B48FFF756FEE0
:10182000FFF76EFE44F67F77C0F2120700BF00BFDD
:101830007F1EFDD100BF00BF00BFDDF800E001B09A
:10184000704700BF301E0000981D000081B01CF8DA
:10185000019B0BF8019BBBEB0A0FF8D101B070475D
:1018600082B0CDF800E05648FFF7ECFD48F67F5710
:10187000C0F25B0700BF00BF7F1EFDD100BF00BFED
:1018800000BF50480078FFF721FA48F67F57C0F2B2
:101890005B077F1EFDD100BF00BF00BF00BF00BFC0
:1018A00049480078FFF712FA48F67F57C0F25B0705
:1018B0007F1EFDD100BF00BF00BF00BF00BFAF2132
:1018C000002914D98DF80410C8B2FFF7A7FD9DF8C0
:1018D00004104DF2BF47C0F201077F1EFDD100BFCB
:1018E00000BF00BF00BF00BF491EC9B2E8E700212A
:1018F000AF2914D28DF80410C8B2FFF78FFD9DF800
:1019000004104DF2BF47C0F201077F1EFDD100BF9A
:1019100000BF00BF00BF00BF491CC9B2E8E70521F6
:101920000020FFF74DFD41F6FF27C0F2B70700BFCB
:1019300000BF7F1EFDD100BF00BF00BFFFF7BCFD91
:101940001F48FFF77FFD05210020FFF7CFFC41F680
:10195000FF27C0F2B70700BF00BF7F1EFDD100BF49
:1019600000BF00BFFFF7A8FD1548FFF76BFD05217D
:101970000020FFF7E9FC41F6FF27C0F2B70700BFE0
:1019800000BF7F1EFDD100BF00BF00BFFFF794FD69
:101990000B48FFF757FD05210020FFF761FE41F6D8
:1019A000FF27C0F2B70700BF00BF7F1EFDD100BFF9
:1019B00000BF00BFFFF780FDDDF800E002B0704718
:1019C0004C1B0000000000200100002081B00249F3
:1019D0000248016001B07047401901002800002052
:1019E00081B0FEE701B0704781B0CDF800E0464A13
:1019F000464B474C47494BF68030814206D9464812
:101A0000006840F002014448016011E045F6C05012
:101A1000814206D94048006840F001013E4801601B
:101A200006E03D4801686FF0070001403A48016058
:101A3000FFF774FE3948036039480460394802EA08
:101A400000013948016002F0010040B119463648F2
:101A5000006800F00200002800D1F8E700E0194615
:101A600002F4803040B10B462F48006800F400308B
:101A7000002800D1F8E700E00B4602F0805068B182
:101A80002948006840F080512748016026480068D6
:101A900000F00050002800D1F8E7FFE702F0806076
:101AA00078B12148006840F080611F48016011460C
:101AB0001A461D48006800F00060002800D1F8E7D1
:101AC00001E011461A4601F0807070B116480068B6
:101AD00040F080711448016011461348006800F01E
:101AE000007000B9F9E70A46FFE70C48006800F00B
:101AF0000C01900000F00C00814200D0F5E7DDF809
:101B000000E001B0704700BF8100010502841D00A4
:101B10004406010040190100002002400410024068
:101B20002C100240FFFF0F0000100240FFF75CFF87
:101B300000F0C4F9FFF74AFF00F080F9FFF744FE18
:101B4000FFF766FEFFF78CFEFCE7FEE7FFFF3F1F97
:101B50000F070703030303030303E3E30303030381
:101B6000C3E3C303030303E3E30303030303030325
:101B700003C3C36363636363E3E303036363636395
:101B8000636363E3E30303030303030303E3E30385
:101B90000303C3C363636363C3C303030303030395
:101BA000030303030307070F1F3FFFFFFF000000AE
:101BB0000000000000000000000000031FF8C0FE4D
:101BC0001F001FFEC0F81F030000000000000000FF
:101BD0003FFFC08080808080FFFF00008C8C8C8C59
:101BE0008C8C8CFFFF0000808080808080FFFF0055
:101BF000003FFFC080808080C0FF3F0000000000E9
:101C00000000000000000000000000FFFF000000D6
:101C10000000000000008080808080808080810142
:101C200000000001010000000000000000000000B2
:101C30000000000101018181010180800101C1C119
:101C4000C181010101000081C1C1C1010101010087
:101C50000000000001010101000000000000000080
:101C60008080000000000000000000FFFF00000076
:101C700000000000000031313131313131FFFF000F
:101C800000F0F81C0C0C1CF8F0000C0C18FCFC000C
:101C900000048CF870E0FFFF0000FDFD0000FFFF76
:101CA000031FFCC000C0FC1F03FFFF00000000007A
:101CB0000C3CF0C000C0F03C0C00F0F81C0C0C1800
:101CC000FFFF000000000000000000FFFFFEF8F032
:101CD000E0C0C080808086868686868686878780EC
:101CE00080818387868687838180808080878780C4
:101CF00080868781808087878080878780808787AC
:101D000080808187868781808087878080808080AF
:101D1000808081879FBFB1B08080818387868683E2
:101D20008787808080C0C0E0F0F8FEFF16000000CA
:101D300017000000FFFFFFFF000000000000000090
:101D40000000000000000000000000000000000093
:101D50000000000000000000000000000000000083
:101D60002808000028080000000000000000000013
:101D70000000000000000000000000000000000063
:101D80000000000000000000000000000000000053
:101D900000000000020000004D0E0000910E000047
:101DA000850E000075120000E1120000BD12000057
:101DB000C9120000D51200008D1200009912000017
:101DC000B1120000A5120000FFFFFFFFFFFFFFFFA1
:101DD000FFFFFFFFFFFFFFFFFFFFFFFFFFFFFFFF13
:101DE000FFFFFFFFFFFFFFFFFFFFFFFFFFFFFFFF03
:101DF000FFFFFFFFFFFFFFFFA7A6262F0000000049
:101E0000000000000000000081A327292A2700010C
:101E10003D3CAED5A8D3408DC8DAD9DBA4AF0000D5
:101E20000000010203040102030406070809FFFF82
:101E300085070000690B0000FFFFFFFF00B5DFF81A
:101E400014B0DFF814A0DFF814C0FFF7FFFC00BDEA
:101E5000704700BF0000002026000020F81D000091
:101E6000FFFFFFFFFFFFFFFFFFFFFFFFFFFFFFFF82
:101E7000FFFFFFFFFFFFFFFFFFFFFFFFFFFFFFFF72
:101E8000FFFFFFFFFFFFFFFFFFFFFFFFFFFFFFFF62
:101E9000FFFFFFFFFFFFFFFFFFFFFFFFFFFFFFFF52
:101EA000FFFFFFFFFFFFFFFFFFFFFFFFFFFFFFFF42
:101EB000FFFFFFFFFFFFFFFFFFFFFFFF00B5DFF8A2
:101EC00010B0DFF810A0FFF75FFC00BD704700BF47
:101ED0000000002060000020FFFFFFFFFFFFFFFF6A
:00000001FF
